{
  "contractName": "MercuriumToken",
  "abi": [
    {
      "constant": true,
      "inputs": [],
      "name": "name",
      "outputs": [
        {
          "name": "",
          "type": "string"
        }
      ],
      "payable": false,
      "stateMutability": "view",
      "type": "function"
    },
    {
      "constant": false,
      "inputs": [
        {
          "name": "_newOwner",
          "type": "address"
        }
      ],
      "name": "setOwner",
      "outputs": [],
      "payable": false,
      "stateMutability": "nonpayable",
      "type": "function"
    },
    {
      "constant": true,
      "inputs": [],
      "name": "totalSupply",
      "outputs": [
        {
          "name": "",
          "type": "uint256"
        }
      ],
      "payable": false,
      "stateMutability": "view",
      "type": "function"
    },
    {
      "constant": true,
      "inputs": [],
      "name": "decimals",
      "outputs": [
        {
          "name": "",
          "type": "uint8"
        }
      ],
      "payable": false,
      "stateMutability": "view",
      "type": "function"
    },
    {
      "constant": true,
      "inputs": [],
      "name": "owner",
      "outputs": [
        {
          "name": "",
          "type": "address"
        }
      ],
      "payable": false,
      "stateMutability": "view",
      "type": "function"
    },
    {
      "constant": true,
      "inputs": [],
      "name": "symbol",
      "outputs": [
        {
          "name": "",
          "type": "string"
        }
      ],
      "payable": false,
      "stateMutability": "view",
      "type": "function"
    },
    {
      "constant": true,
      "inputs": [
        {
          "name": "",
          "type": "address"
        },
        {
          "name": "",
          "type": "address"
        }
      ],
      "name": "allowance",
      "outputs": [
        {
          "name": "",
          "type": "uint256"
        }
      ],
      "payable": false,
      "stateMutability": "view",
      "type": "function"
    },
    {
      "constant": true,
      "inputs": [
        {
          "name": "",
          "type": "address"
        }
      ],
      "name": "balance",
      "outputs": [
        {
          "name": "",
          "type": "uint256"
        }
      ],
      "payable": false,
      "stateMutability": "view",
      "type": "function"
    },
    {
      "constant": true,
      "inputs": [
        {
          "name": "",
          "type": "address"
        }
      ],
      "name": "guarantees",
      "outputs": [
        {
          "name": "",
          "type": "uint256"
        }
      ],
      "payable": false,
      "stateMutability": "view",
      "type": "function"
    },
    {
      "inputs": [],
      "payable": false,
      "stateMutability": "nonpayable",
      "type": "constructor"
    },
    {
      "anonymous": false,
      "inputs": [
        {
          "indexed": true,
          "name": "from",
          "type": "address"
        },
        {
          "indexed": true,
          "name": "to",
          "type": "address"
        },
        {
          "indexed": false,
          "name": "value",
          "type": "uint256"
        }
      ],
      "name": "Transfer",
      "type": "event"
    },
    {
      "constant": false,
      "inputs": [
        {
          "name": "_to",
          "type": "address"
        },
        {
          "name": "_value",
          "type": "uint256"
        }
      ],
      "name": "transfer",
      "outputs": [],
      "payable": false,
      "stateMutability": "nonpayable",
      "type": "function"
    }
  ],
  "bytecode": "0x60806040526040805190810160405280600981526020017f4d657263757269756d00000000000000000000000000000000000000000000008152506001908051906020019061004f92919061015b565b506040805190810160405280600381526020017f4d524300000000000000000000000000000000000000000000000000000000008152506002908051906020019061009b92919061015b565b506007600360006101000a81548160ff021916908360ff160217905550662386f26fc100006004553480156100cf57600080fd5b50336000806101000a81548173ffffffffffffffffffffffffffffffffffffffff021916908373ffffffffffffffffffffffffffffffffffffffff160217905550600454600560003373ffffffffffffffffffffffffffffffffffffffff1673ffffffffffffffffffffffffffffffffffffffff16815260200190815260200160002081905550610200565b828054600181600116156101000203166002900490600052602060002090601f016020900481019282601f1061019c57805160ff19168380011785556101ca565b828001600101855582156101ca579182015b828111156101c95782518255916020019190600101906101ae565b5b5090506101d791906101db565b5090565b6101fd91905b808211156101f95760008160009055506001016101e1565b5090565b90565b61091f8061020f6000396000f3006080604052600436106100a4576000357c0100000000000000000000000000000000000000000000000000000000900463ffffffff16806306fdde03146100a957806313af40351461013957806318160ddd1461017c578063313ce567146101a75780638da5cb5b146101d857806395d89b411461022f578063a9059cbb146102bf578063dd62ed3e1461030c578063e3d670d714610383578063f7597738146103da575b600080fd5b3480156100b557600080fd5b506100be610431565b6040518080602001828103825283818151815260200191508051906020019080838360005b838110156100fe5780820151818401526020810190506100e3565b50505050905090810190601f16801561012b5780820380516001836020036101000a031916815260200191505b509250505060405180910390f35b34801561014557600080fd5b5061017a600480360381019080803573ffffffffffffffffffffffffffffffffffffffff1690602001909291905050506104cf565b005b34801561018857600080fd5b506101916105a9565b6040518082815260200191505060405180910390f35b3480156101b357600080fd5b506101bc6105af565b604051808260ff1660ff16815260200191505060405180910390f35b3480156101e457600080fd5b506101ed6105c2565b604051808273ffffffffffffffffffffffffffffffffffffffff1673ffffffffffffffffffffffffffffffffffffffff16815260200191505060405180910390f35b34801561023b57600080fd5b506102446105e7565b6040518080602001828103825283818151815260200191508051906020019080838360005b83811015610284578082015181840152602081019050610269565b50505050905090810190601f1680156102b15780820380516001836020036101000a031916815260200191505b509250505060405180910390f35b3480156102cb57600080fd5b5061030a600480360381019080803573ffffffffffffffffffffffffffffffffffffffff16906020019092919080359060200190929190505050610685565b005b34801561031857600080fd5b5061036d600480360381019080803573ffffffffffffffffffffffffffffffffffffffff169060200190929190803573ffffffffffffffffffffffffffffffffffffffff16906020019092919050505061089e565b6040518082815260200191505060405180910390f35b34801561038f57600080fd5b506103c4600480360381019080803573ffffffffffffffffffffffffffffffffffffffff1690602001909291905050506108c3565b6040518082815260200191505060405180910390f35b3480156103e657600080fd5b5061041b600480360381019080803573ffffffffffffffffffffffffffffffffffffffff1690602001909291905050506108db565b6040518082815260200191505060405180910390f35b60018054600181600116156101000203166002900480601f0160208091040260200160405190810160405280929190818152602001828054600181600116156101000203166002900480156104c75780601f1061049c576101008083540402835291602001916104c7565b820191906000526020600020905b8154815290600101906020018083116104aa57829003601f168201915b505050505081565b6000809054906101000a900473ffffffffffffffffffffffffffffffffffffffff1673ffffffffffffffffffffffffffffffffffffffff163373ffffffffffffffffffffffffffffffffffffffff1614151561052a57600080fd5b600073ffffffffffffffffffffffffffffffffffffffff168173ffffffffffffffffffffffffffffffffffffffff161415151561056657600080fd5b806000806101000a81548173ffffffffffffffffffffffffffffffffffffffff021916908373ffffffffffffffffffffffffffffffffffffffff16021790555050565b60045481565b600360009054906101000a900460ff1681565b6000809054906101000a900473ffffffffffffffffffffffffffffffffffffffff1681565b60028054600181600116156101000203166002900480601f01602080910402602001604051908101604052809291908181526020018280546001816001161561010002031660029004801561067d5780601f106106525761010080835404028352916020019161067d565b820191906000526020600020905b81548152906001019060200180831161066057829003601f168201915b505050505081565b8080600560003373ffffffffffffffffffffffffffffffffffffffff1673ffffffffffffffffffffffffffffffffffffffff168152602001908152602001600020541115156106d357600080fd5b600073ffffffffffffffffffffffffffffffffffffffff168373ffffffffffffffffffffffffffffffffffffffff161415801561078f5750600560008473ffffffffffffffffffffffffffffffffffffffff1673ffffffffffffffffffffffffffffffffffffffff1681526020019081526020016000205482600560008673ffffffffffffffffffffffffffffffffffffffff1673ffffffffffffffffffffffffffffffffffffffff1681526020019081526020016000205401115b151561079a57600080fd5b81600560003373ffffffffffffffffffffffffffffffffffffffff1673ffffffffffffffffffffffffffffffffffffffff1681526020019081526020016000206000828254039250508190555081600560008573ffffffffffffffffffffffffffffffffffffffff1673ffffffffffffffffffffffffffffffffffffffff168152602001908152602001600020600082825401925050819055508273ffffffffffffffffffffffffffffffffffffffff163373ffffffffffffffffffffffffffffffffffffffff167fddf252ad1be2c89b69c2b068fc378daa952ba7f163c4a11628f55a4df523b3ef846040518082815260200191505060405180910390a3505050565b6006602052816000526040600020602052806000526040600020600091509150505481565b60056020528060005260406000206000915090505481565b600760205280600052604060002060009150905054815600a165627a7a72305820aaa45ab84b69b97ce87274b880f2a5031182c6112e5517d5590b036ee0c6d7cc0029",
  "source": "pragma solidity ^0.4.19;\r\n\r\n/**\r\n * The base contract of Mercurium\r\n */\r\ncontract Mercurium {\r\n\taddress public owner;\r\n\r\n\tmodifier onlyOwner() { \r\n\t\trequire (msg.sender == owner); \r\n\t\t_; \r\n\t}\r\n\r\n\tconstructor () public {\r\n\t\towner = msg.sender;\r\n\t}\r\n\r\n\tfunction setOwner (address _newOwner) onlyOwner public {\r\n\t\trequire (_newOwner != address(0x0));\r\n\t\towner = _newOwner;\r\n\t}\r\n\t\r\n}\r\n\r\ncontract MercuriumToken is Mercurium {\r\n\r\n    string public name = \"Mercurium\";\r\n    string public symbol = \"MRC\";\r\n    uint8 public decimals = 7;\r\n    uint256 public totalSupply = 10000000000000000; //100000000 coins total\r\n\r\n    /* This creates an array with all balances */\r\n    mapping (address => uint256) public balance;\r\n    mapping (address => mapping (address => uint256)) public allowance;\r\n    mapping (address => uint256) public guarantees;//Garantias para pagamento ou restituições (calção)\r\n    \r\n    modifier hasEnough(uint256 _value) { \r\n    \trequire (balance[msg.sender] > _value); \r\n    \t_; \r\n    }\r\n\r\n    constructor() public {\r\n        balance[msg.sender] = totalSupply;\r\n    }\r\n\r\n    /* Send coins */\r\n    function transfer(address _to, uint256 _value) hasEnough(_value) public {\r\n    \trequire (_to != address(0x0) && balance[_to] + _value > balance[_to]);\r\n\r\n        balance[msg.sender] -= _value;\r\n        balance[_to] += _value;\r\n        emit Transfer(msg.sender, _to, _value);\r\n    }\r\n\r\n    event Transfer(address indexed from, address indexed to, uint256 value);\r\n}",
  "sourcePath": "C:\\Users\\LuisM\\Documents\\Projetos\\Crypto\\mercurium\\contracts\\Mercurium.sol",
  "compiler": {
    "name": "solc",
    "version": "0.4.23+commit.124ca40d.Emscripten.clang"
  },
  "schemaVersion": "2.0.0",
  "updatedAt": "2018-05-07T00:14:24.447Z"
}