{
  "contractName": "Orders",
  "abi": [
    {
      "constant": true,
      "inputs": [],
      "name": "name",
      "outputs": [
        {
          "name": "",
          "type": "string"
        }
      ],
      "payable": false,
      "stateMutability": "view",
      "type": "function"
    },
    {
      "constant": false,
      "inputs": [
        {
          "name": "_newOwner",
          "type": "address"
        }
      ],
      "name": "setOwner",
      "outputs": [],
      "payable": false,
      "stateMutability": "nonpayable",
      "type": "function"
    },
    {
      "constant": true,
      "inputs": [],
      "name": "totalSupply",
      "outputs": [
        {
          "name": "",
          "type": "uint256"
        }
      ],
      "payable": false,
      "stateMutability": "view",
      "type": "function"
    },
    {
      "constant": true,
      "inputs": [],
      "name": "decimals",
      "outputs": [
        {
          "name": "",
          "type": "uint8"
        }
      ],
      "payable": false,
      "stateMutability": "view",
      "type": "function"
    },
    {
      "constant": true,
      "inputs": [
        {
          "name": "",
          "type": "uint256"
        }
      ],
      "name": "orderToOwner",
      "outputs": [
        {
          "name": "",
          "type": "address"
        }
      ],
      "payable": false,
      "stateMutability": "view",
      "type": "function"
    },
    {
      "constant": true,
      "inputs": [
        {
          "name": "",
          "type": "address"
        }
      ],
      "name": "user",
      "outputs": [
        {
          "name": "available",
          "type": "bool"
        },
        {
          "name": "isDeliverer",
          "type": "bool"
        },
        {
          "name": "created",
          "type": "uint256"
        },
        {
          "name": "positive_reputations",
          "type": "uint32"
        },
        {
          "name": "negative_reputations",
          "type": "uint32"
        },
        {
          "name": "order_count",
          "type": "uint32"
        }
      ],
      "payable": false,
      "stateMutability": "view",
      "type": "function"
    },
    {
      "constant": true,
      "inputs": [],
      "name": "owner",
      "outputs": [
        {
          "name": "",
          "type": "address"
        }
      ],
      "payable": false,
      "stateMutability": "view",
      "type": "function"
    },
    {
      "constant": true,
      "inputs": [],
      "name": "symbol",
      "outputs": [
        {
          "name": "",
          "type": "string"
        }
      ],
      "payable": false,
      "stateMutability": "view",
      "type": "function"
    },
    {
      "constant": true,
      "inputs": [
        {
          "name": "",
          "type": "uint256"
        }
      ],
      "name": "order_list",
      "outputs": [
        {
          "name": "sender",
          "type": "address"
        },
        {
          "name": "deliverer",
          "type": "address"
        },
        {
          "name": "description",
          "type": "string"
        },
        {
          "name": "status",
          "type": "uint8"
        },
        {
          "name": "reputation_value",
          "type": "uint8"
        },
        {
          "name": "weight",
          "type": "uint32"
        },
        {
          "name": "price",
          "type": "uint256"
        },
        {
          "name": "created",
          "type": "uint256"
        },
        {
          "name": "updated",
          "type": "uint256"
        },
        {
          "name": "expected",
          "type": "uint256"
        }
      ],
      "payable": false,
      "stateMutability": "view",
      "type": "function"
    },
    {
      "constant": false,
      "inputs": [
        {
          "name": "_to",
          "type": "address"
        },
        {
          "name": "_value",
          "type": "uint256"
        }
      ],
      "name": "transfer",
      "outputs": [],
      "payable": false,
      "stateMutability": "nonpayable",
      "type": "function"
    },
    {
      "constant": true,
      "inputs": [
        {
          "name": "",
          "type": "address"
        },
        {
          "name": "",
          "type": "address"
        }
      ],
      "name": "allowance",
      "outputs": [
        {
          "name": "",
          "type": "uint256"
        }
      ],
      "payable": false,
      "stateMutability": "view",
      "type": "function"
    },
    {
      "constant": true,
      "inputs": [
        {
          "name": "",
          "type": "address"
        }
      ],
      "name": "balance",
      "outputs": [
        {
          "name": "",
          "type": "uint256"
        }
      ],
      "payable": false,
      "stateMutability": "view",
      "type": "function"
    },
    {
      "constant": true,
      "inputs": [
        {
          "name": "",
          "type": "address"
        }
      ],
      "name": "guarantees",
      "outputs": [
        {
          "name": "",
          "type": "uint256"
        }
      ],
      "payable": false,
      "stateMutability": "view",
      "type": "function"
    },
    {
      "anonymous": false,
      "inputs": [
        {
          "indexed": false,
          "name": "status",
          "type": "uint8"
        },
        {
          "indexed": false,
          "name": "order_id",
          "type": "uint256"
        },
        {
          "indexed": true,
          "name": "node",
          "type": "address"
        }
      ],
      "name": "OrderStatusChanged",
      "type": "event"
    },
    {
      "anonymous": false,
      "inputs": [
        {
          "indexed": false,
          "name": "id",
          "type": "uint256"
        }
      ],
      "name": "NewOrder",
      "type": "event"
    },
    {
      "anonymous": false,
      "inputs": [
        {
          "indexed": true,
          "name": "from",
          "type": "address"
        },
        {
          "indexed": true,
          "name": "to",
          "type": "address"
        },
        {
          "indexed": false,
          "name": "value",
          "type": "uint256"
        }
      ],
      "name": "Transfer",
      "type": "event"
    },
    {
      "constant": false,
      "inputs": [
        {
          "name": "_dimension",
          "type": "uint16[3]"
        },
        {
          "name": "_weight",
          "type": "uint32"
        },
        {
          "name": "_reputation_value",
          "type": "uint8"
        },
        {
          "name": "_price",
          "type": "uint256"
        },
        {
          "name": "_description",
          "type": "string"
        },
        {
          "name": "_coords",
          "type": "int32[4]"
        }
      ],
      "name": "newOrder",
      "outputs": [],
      "payable": false,
      "stateMutability": "nonpayable",
      "type": "function"
    },
    {
      "constant": false,
      "inputs": [
        {
          "name": "_order_id",
          "type": "uint256"
        }
      ],
      "name": "cancelOrder",
      "outputs": [],
      "payable": false,
      "stateMutability": "nonpayable",
      "type": "function"
    },
    {
      "constant": false,
      "inputs": [],
      "name": "registerAsDeliverer",
      "outputs": [],
      "payable": false,
      "stateMutability": "nonpayable",
      "type": "function"
    },
    {
      "constant": false,
      "inputs": [
        {
          "name": "_order_id",
          "type": "uint256"
        },
        {
          "name": "_prevision_date",
          "type": "uint256"
        }
      ],
      "name": "acceptOrder",
      "outputs": [],
      "payable": false,
      "stateMutability": "nonpayable",
      "type": "function"
    },
    {
      "constant": true,
      "inputs": [
        {
          "name": "_order_id",
          "type": "uint256"
        }
      ],
      "name": "getOrdersDetailsById",
      "outputs": [
        {
          "name": "o_coords",
          "type": "int32[]"
        },
        {
          "name": "o_dimensions",
          "type": "uint16[]"
        },
        {
          "name": "o_timer",
          "type": "uint256[]"
        }
      ],
      "payable": false,
      "stateMutability": "view",
      "type": "function"
    },
    {
      "constant": true,
      "inputs": [
        {
          "name": "_owner",
          "type": "address"
        }
      ],
      "name": "getOrdersByOwner",
      "outputs": [
        {
          "name": "o_id",
          "type": "uint256[]"
        }
      ],
      "payable": false,
      "stateMutability": "view",
      "type": "function"
    },
    {
      "constant": false,
      "inputs": [
        {
          "name": "_order_id",
          "type": "uint256"
        }
      ],
      "name": "setOrderComplete",
      "outputs": [],
      "payable": false,
      "stateMutability": "nonpayable",
      "type": "function"
    }
  ],
  "bytecode": "0x60806040526040805190810160405280600981526020017f4d657263757269756d0000000000000000000000000000000000000000000000815250600190805190602001906200005192919062000153565b506040805190810160405280600381526020017f4d52430000000000000000000000000000000000000000000000000000000000815250600290805190602001906200009f92919062000153565b506007600360006101000a81548160ff021916908360ff160217905550662386f26fc10000600455336000806101000a81548173ffffffffffffffffffffffffffffffffffffffff021916908373ffffffffffffffffffffffffffffffffffffffff160217905550600454600560003373ffffffffffffffffffffffffffffffffffffffff1673ffffffffffffffffffffffffffffffffffffffff1681526020019081526020016000208190555062000202565b828054600181600116156101000203166002900490600052602060002090601f016020900481019282601f106200019657805160ff1916838001178555620001c7565b82800160010185558215620001c7579182015b82811115620001c6578251825591602001919060010190620001a9565b5b509050620001d69190620001da565b5090565b620001ff91905b80821115620001fb576000816000905550600101620001e1565b5090565b90565b6125d480620002126000396000f300608060405260043610610112576000357c0100000000000000000000000000000000000000000000000000000000900463ffffffff16806306fdde031461011757806313af4035146101a757806318160ddd146101ea57806318b0c4e414610215578063313ce56714610242578063380c9d45146102735780633d05a33414610385578063514fcac7146103bc5780637626a8a6146103e957806381e7e20e146104565780638da5cb5b146104fc57806395d89b4114610553578063a7c3e3be146105e3578063a9059cbb14610738578063c00e59e214610785578063d229b0151461079c578063dd62ed3e1461088a578063e3d670d714610901578063f759773814610958578063f99ddd73146109af575b600080fd5b34801561012357600080fd5b5061012c610a47565b6040518080602001828103825283818151815260200191508051906020019080838360005b8381101561016c578082015181840152602081019050610151565b50505050905090810190601f1680156101995780820380516001836020036101000a031916815260200191505b509250505060405180910390f35b3480156101b357600080fd5b506101e8600480360381019080803573ffffffffffffffffffffffffffffffffffffffff169060200190929190505050610ae5565b005b3480156101f657600080fd5b506101ff610bbf565b6040518082815260200191505060405180910390f35b34801561022157600080fd5b5061024060048036038101908080359060200190929190505050610bc5565b005b34801561024e57600080fd5b50610257610f84565b604051808260ff1660ff16815260200191505060405180910390f35b34801561027f57600080fd5b5061029e60048036038101908080359060200190929190505050610f97565b60405180806020018060200180602001848103845287818151815260200191508051906020019060200280838360005b838110156102e95780820151818401526020810190506102ce565b50505050905001848103835286818151815260200191508051906020019060200280838360005b8381101561032b578082015181840152602081019050610310565b50505050905001848103825285818151815260200191508051906020019060200280838360005b8381101561036d578082015181840152602081019050610352565b50505050905001965050505050505060405180910390f35b34801561039157600080fd5b506103ba600480360381019080803590602001909291908035906020019092919050505061127b565b005b3480156103c857600080fd5b506103e76004803603810190808035906020019092919050505061147e565b005b3480156103f557600080fd5b506104146004803603810190808035906020019092919050505061173d565b604051808273ffffffffffffffffffffffffffffffffffffffff1673ffffffffffffffffffffffffffffffffffffffff16815260200191505060405180910390f35b34801561046257600080fd5b50610497600480360381019080803573ffffffffffffffffffffffffffffffffffffffff169060200190929190505050611770565b6040518087151515158152602001861515151581526020018581526020018463ffffffff1663ffffffff1681526020018363ffffffff1663ffffffff1681526020018263ffffffff1663ffffffff168152602001965050505050505060405180910390f35b34801561050857600080fd5b506105116117f6565b604051808273ffffffffffffffffffffffffffffffffffffffff1673ffffffffffffffffffffffffffffffffffffffff16815260200191505060405180910390f35b34801561055f57600080fd5b5061056861181b565b6040518080602001828103825283818151815260200191508051906020019080838360005b838110156105a857808201518184015260208101905061058d565b50505050905090810190601f1680156105d55780820380516001836020036101000a031916815260200191505b509250505060405180910390f35b3480156105ef57600080fd5b5061060e600480360381019080803590602001909291905050506118b9565b604051808b73ffffffffffffffffffffffffffffffffffffffff1673ffffffffffffffffffffffffffffffffffffffff1681526020018a73ffffffffffffffffffffffffffffffffffffffff1673ffffffffffffffffffffffffffffffffffffffff168152602001806020018960ff1660ff1681526020018860ff1660ff1681526020018763ffffffff1663ffffffff16815260200186815260200185815260200184815260200183815260200182810382528a818151815260200191508051906020019080838360005b838110156106f45780820151818401526020810190506106d9565b50505050905090810190601f1680156107215780820380516001836020036101000a031916815260200191505b509b50505050505050505050505060405180910390f35b34801561074457600080fd5b50610783600480360381019080803573ffffffffffffffffffffffffffffffffffffffff16906020019092919080359060200190929190505050611a1e565b005b34801561079157600080fd5b5061079a611c37565b005b3480156107a857600080fd5b506108886004803603810190808060600190600380602002604051908101604052809291908260036020028082843782019150505050509192919290803563ffffffff169060200190929190803560ff16906020019092919080359060200190929190803590602001908201803590602001908080601f01602080910402602001604051908101604052809392919081815260200183838082843782019150505050505091929192908060800190600480602002604051908101604052809291908260046020028082843782019150505050509192919290505050611cf6565b005b34801561089657600080fd5b506108eb600480360381019080803573ffffffffffffffffffffffffffffffffffffffff169060200190929190803573ffffffffffffffffffffffffffffffffffffffff1690602001909291905050506121be565b6040518082815260200191505060405180910390f35b34801561090d57600080fd5b50610942600480360381019080803573ffffffffffffffffffffffffffffffffffffffff1690602001909291905050506121e3565b6040518082815260200191505060405180910390f35b34801561096457600080fd5b50610999600480360381019080803573ffffffffffffffffffffffffffffffffffffffff1690602001909291905050506121fb565b6040518082815260200191505060405180910390f35b3480156109bb57600080fd5b506109f0600480360381019080803573ffffffffffffffffffffffffffffffffffffffff169060200190929190505050612213565b6040518080602001828103825283818151815260200191508051906020019060200280838360005b83811015610a33578082015181840152602081019050610a18565b505050509050019250505060405180910390f35b60018054600181600116156101000203166002900480601f016020809104026020016040519081016040528092919081815260200182805460018160011615610100020316600290048015610add5780601f10610ab257610100808354040283529160200191610add565b820191906000526020600020905b815481529060010190602001808311610ac057829003601f168201915b505050505081565b6000809054906101000a900473ffffffffffffffffffffffffffffffffffffffff1673ffffffffffffffffffffffffffffffffffffffff163373ffffffffffffffffffffffffffffffffffffffff16141515610b4057600080fd5b600073ffffffffffffffffffffffffffffffffffffffff168173ffffffffffffffffffffffffffffffffffffffff1614151515610b7c57600080fd5b806000806101000a81548173ffffffffffffffffffffffffffffffffffffffff021916908373ffffffffffffffffffffffffffffffffffffffff16021790555050565b60045481565b6000813373ffffffffffffffffffffffffffffffffffffffff16600882815481101515610bee57fe5b90600052602060002090600b020160000160009054906101000a900473ffffffffffffffffffffffffffffffffffffffff1673ffffffffffffffffffffffffffffffffffffffff16141515610c4257600080fd5b60026003811115610c4f57fe5b60ff16600884815481101515610c6157fe5b90600052602060002090600b020160030160009054906101000a900460ff1660ff16101515610c8f57600080fd5b60026003811115610c9c57fe5b600884815481101515610cab57fe5b90600052602060002090600b020160030160006101000a81548160ff021916908360ff16021790555042600884815481101515610ce457fe5b90600052602060002090600b020160090181905550600883815481101515610d0857fe5b90600052602060002090600b020160010160009054906101000a900473ffffffffffffffffffffffffffffffffffffffff169150600883815481101515610d4b57fe5b90600052602060002090600b020160030160019054906101000a900460ff1660ff16600960008473ffffffffffffffffffffffffffffffffffffffff1673ffffffffffffffffffffffffffffffffffffffff16815260200190815260200160002060020160008282829054906101000a900463ffffffff160192506101000a81548163ffffffff021916908363ffffffff160217905550600883815481101515610df157fe5b90600052602060002090600b020160070154600760003373ffffffffffffffffffffffffffffffffffffffff1673ffffffffffffffffffffffffffffffffffffffff16815260200190815260200160002060008282540392505081905550600883815481101515610e5e57fe5b90600052602060002090600b020160070154600560008473ffffffffffffffffffffffffffffffffffffffff1673ffffffffffffffffffffffffffffffffffffffff168152602001908152602001600020600082825401925050819055506001600960008473ffffffffffffffffffffffffffffffffffffffff1673ffffffffffffffffffffffffffffffffffffffff16815260200190815260200160002060000160006101000a81548160ff0219169083151502179055508173ffffffffffffffffffffffffffffffffffffffff167f522bac0557e91e68722c5038602e003f56d0de6f1f31d550966c21501850ae5b60026003811115610f5c57fe5b85604051808360ff1660ff1681526020018281526020019250505060405180910390a2505050565b600360009054906101000a900460ff1681565b60608060606000600885815481101515610fad57fe5b9060005260206000209050506004604051908082528060200260200182016040528015610fe95781602001602082028038833980820191505090505b509350600885815481101515610ffb57fe5b90600052602060002090505060036040519080825280602002602001820160405280156110375781602001602082028038833980820191505090505b509250600360405190808252806020026020018201604052801561106a5781602001602082028038833980820191505090505b509150600090505b60088581548110151561108157fe5b906000526020600020905050600481101561110d576008858154811015156110a557fe5b90600052602060002090600b0201600601816004811015156110c357fe5b600891828204019190066004029054906101000a900460030b84828151811015156110ea57fe5b9060200190602002019060030b908160030b815250508080600101915050611072565b600090505b60088581548110151561112157fe5b90600052602060002090505060038110156111b05760088581548110151561114557fe5b90600052602060002090600b02016004018160038110151561116357fe5b601091828204019190066002029054906101000a900461ffff16838281518110151561118b57fe5b9060200190602002019061ffff16908161ffff16815250508080600101915050611112565b6008858154811015156111bf57fe5b90600052602060002090600b0201600801548260008151811015156111e057fe5b90602001906020020181815250506008858154811015156111fd57fe5b90600052602060002090600b02016009015482600181518110151561121e57fe5b906020019060200201818152505060088581548110151561123b57fe5b90600052602060002090600b0201600a015482600281518110151561125c57fe5b9060200190602002018181525050838383935093509350509193909250565b600960003373ffffffffffffffffffffffffffffffffffffffff1673ffffffffffffffffffffffffffffffffffffffff16815260200190815260200160002060000160019054906101000a900460ff1615156112d657600080fd5b600960003373ffffffffffffffffffffffffffffffffffffffff1673ffffffffffffffffffffffffffffffffffffffff16815260200190815260200160002060000160009054906101000a900460ff16151561133157600080fd5b3360088381548110151561134157fe5b90600052602060002090600b020160010160006101000a81548173ffffffffffffffffffffffffffffffffffffffff021916908373ffffffffffffffffffffffffffffffffffffffff160217905550426008838154811015156113a057fe5b90600052602060002090600b020160090181905550806008838154811015156113c557fe5b90600052602060002090600b0201600a0181905550600160038111156113e757fe5b6008838154811015156113f657fe5b90600052602060002090600b020160030160006101000a81548160ff021916908360ff1602179055506000600960003373ffffffffffffffffffffffffffffffffffffffff1673ffffffffffffffffffffffffffffffffffffffff16815260200190815260200160002060000160006101000a81548160ff0219169083151502179055505050565b803373ffffffffffffffffffffffffffffffffffffffff166008828154811015156114a557fe5b90600052602060002090600b020160000160009054906101000a900473ffffffffffffffffffffffffffffffffffffffff1673ffffffffffffffffffffffffffffffffffffffff161415156114f957600080fd5b6000600381111561150657fe5b60ff1660088381548110151561151857fe5b90600052602060002090600b020160030160009054906101000a900460ff1660ff1614151561154657600080fd5b60088281548110151561155557fe5b90600052602060002090600b020160070154600760003373ffffffffffffffffffffffffffffffffffffffff1673ffffffffffffffffffffffffffffffffffffffff16815260200190815260200160002054101515156115b457600080fd5b6008828154811015156115c357fe5b90600052602060002090600b020160070154600760003373ffffffffffffffffffffffffffffffffffffffff1673ffffffffffffffffffffffffffffffffffffffff1681526020019081526020016000206000828254039250508190555060088281548110151561163057fe5b90600052602060002090600b020160070154600560003373ffffffffffffffffffffffffffffffffffffffff1673ffffffffffffffffffffffffffffffffffffffff1681526020019081526020016000206000828254019250508190555060038081111561169a57fe5b6008838154811015156116a957fe5b90600052602060002090600b020160030160006101000a81548160ff021916908360ff1602179055503373ffffffffffffffffffffffffffffffffffffffff167f522bac0557e91e68722c5038602e003f56d0de6f1f31d550966c21501850ae5b60038081111561171657fe5b84604051808360ff1660ff1681526020018281526020019250505060405180910390a25050565b600a6020528060005260406000206000915054906101000a900473ffffffffffffffffffffffffffffffffffffffff1681565b60096020528060005260406000206000915090508060000160009054906101000a900460ff16908060000160019054906101000a900460ff16908060010154908060020160009054906101000a900463ffffffff16908060020160049054906101000a900463ffffffff16908060020160089054906101000a900463ffffffff16905086565b6000809054906101000a900473ffffffffffffffffffffffffffffffffffffffff1681565b60028054600181600116156101000203166002900480601f0160208091040260200160405190810160405280929190818152602001828054600181600116156101000203166002900480156118b15780601f10611886576101008083540402835291602001916118b1565b820191906000526020600020905b81548152906001019060200180831161189457829003601f168201915b505050505081565b6008818154811015156118c857fe5b90600052602060002090600b02016000915090508060000160009054906101000a900473ffffffffffffffffffffffffffffffffffffffff16908060010160009054906101000a900473ffffffffffffffffffffffffffffffffffffffff1690806002018054600181600116156101000203166002900480601f0160208091040260200160405190810160405280929190818152602001828054600181600116156101000203166002900480156119c05780601f10611995576101008083540402835291602001916119c0565b820191906000526020600020905b8154815290600101906020018083116119a357829003601f168201915b5050505050908060030160009054906101000a900460ff16908060030160019054906101000a900460ff16908060050160009054906101000a900463ffffffff169080600701549080600801549080600901549080600a015490508a565b8080600560003373ffffffffffffffffffffffffffffffffffffffff1673ffffffffffffffffffffffffffffffffffffffff16815260200190815260200160002054111515611a6c57600080fd5b600073ffffffffffffffffffffffffffffffffffffffff168373ffffffffffffffffffffffffffffffffffffffff1614158015611b285750600560008473ffffffffffffffffffffffffffffffffffffffff1673ffffffffffffffffffffffffffffffffffffffff1681526020019081526020016000205482600560008673ffffffffffffffffffffffffffffffffffffffff1673ffffffffffffffffffffffffffffffffffffffff1681526020019081526020016000205401115b1515611b3357600080fd5b81600560003373ffffffffffffffffffffffffffffffffffffffff1673ffffffffffffffffffffffffffffffffffffffff1681526020019081526020016000206000828254039250508190555081600560008573ffffffffffffffffffffffffffffffffffffffff1673ffffffffffffffffffffffffffffffffffffffff168152602001908152602001600020600082825401925050819055508273ffffffffffffffffffffffffffffffffffffffff163373ffffffffffffffffffffffffffffffffffffffff167fddf252ad1be2c89b69c2b068fc378daa952ba7f163c4a11628f55a4df523b3ef846040518082815260200191505060405180910390a3505050565b60001515600960003373ffffffffffffffffffffffffffffffffffffffff1673ffffffffffffffffffffffffffffffffffffffff16815260200190815260200160002060000160019054906101000a900460ff161515141515611c9957600080fd5b6001600960003373ffffffffffffffffffffffffffffffffffffffff1673ffffffffffffffffffffffffffffffffffffffff16815260200190815260200160002060000160016101000a81548160ff021916908315150217905550565b60008380600560003373ffffffffffffffffffffffffffffffffffffffff1673ffffffffffffffffffffffffffffffffffffffff16815260200190815260200160002054111515611d4657600080fd5b6000600960003373ffffffffffffffffffffffffffffffffffffffff1673ffffffffffffffffffffffffffffffffffffffff168152602001908152602001600020600101541415611dd95742600960003373ffffffffffffffffffffffffffffffffffffffff1673ffffffffffffffffffffffffffffffffffffffff168152602001908152602001600020600101819055505b84600560003373ffffffffffffffffffffffffffffffffffffffff1673ffffffffffffffffffffffffffffffffffffffff1681526020019081526020016000206000828254039250508190555084600760003373ffffffffffffffffffffffffffffffffffffffff1673ffffffffffffffffffffffffffffffffffffffff1681526020019081526020016000206000828254019250508190555060016008610180604051908101604052803373ffffffffffffffffffffffffffffffffffffffff168152602001600073ffffffffffffffffffffffffffffffffffffffff16815260200187815260200160006003811115611ed057fe5b60ff1681526020018960ff1681526020018b81526020018a63ffffffff16815260200186815260200188815260200142815260200142815260200160008152509080600181540180825580915050906001820390600052602060002090600b02016000909192909190915060008201518160000160006101000a81548173ffffffffffffffffffffffffffffffffffffffff021916908373ffffffffffffffffffffffffffffffffffffffff16021790555060208201518160010160006101000a81548173ffffffffffffffffffffffffffffffffffffffff021916908373ffffffffffffffffffffffffffffffffffffffff1602179055506040820151816002019080519060200190611fe592919061235c565b5060608201518160030160006101000a81548160ff021916908360ff16021790555060808201518160030160016101000a81548160ff021916908360ff16021790555060a08201518160040190600361203f9291906123dc565b5060c08201518160050160006101000a81548163ffffffff021916908363ffffffff16021790555060e08201518160060190600461207e929190612479565b5061010082015181600701556101208201518160080155610140820151816009015561016082015181600a0155505003915033600a600084815260200190815260200160002060006101000a81548173ffffffffffffffffffffffffffffffffffffffff021916908373ffffffffffffffffffffffffffffffffffffffff160217905550600960003373ffffffffffffffffffffffffffffffffffffffff1673ffffffffffffffffffffffffffffffffffffffff168152602001908152602001600020600201600881819054906101000a900463ffffffff168092919060010191906101000a81548163ffffffff021916908363ffffffff160217905550507fd56de72b04be4cf70c2bab5e6905fb51e28beb22f7a5d40a6dc4103149d61106826040518082815260200191505060405180910390a15050505050505050565b6006602052816000526040600020602052806000526040600020600091509150505481565b60056020528060005260406000206000915090505481565b60076020528060005260406000206000915090505481565b6060600080600960008573ffffffffffffffffffffffffffffffffffffffff1673ffffffffffffffffffffffffffffffffffffffff16815260200190815260200160002060020160089054906101000a900463ffffffff1663ffffffff1660405190808252806020026020018201604052801561229f5781602001602082028038833980820191505090505b50925060009150600090505b600880549050811015612352578373ffffffffffffffffffffffffffffffffffffffff16600a600083815260200190815260200160002060009054906101000a900473ffffffffffffffffffffffffffffffffffffffff1673ffffffffffffffffffffffffffffffffffffffff1614156123455780838381518110151561232e57fe5b906020019060200201818152505081806001019250505b80806001019150506122ab565b8292505050919050565b828054600181600116156101000203166002900490600052602060002090601f016020900481019282601f1061239d57805160ff19168380011785556123cb565b828001600101855582156123cb579182015b828111156123ca5782518255916020019190600101906123af565b5b5090506123d8919061251f565b5090565b826003600f016010900481019282156124685791602002820160005b8382111561243857835183826101000a81548161ffff021916908361ffff16021790555092602001926002016020816001010492830192600103026123f8565b80156124665782816101000a81549061ffff0219169055600201602081600101049283019260010302612438565b505b5090506124759190612544565b5090565b82600460070160089004810192821561250e5791602002820160005b838211156124dc57835183826101000a81548163ffffffff021916908360030b63ffffffff1602179055509260200192600401602081600301049283019260010302612495565b801561250c5782816101000a81549063ffffffff02191690556004016020816003010492830192600103026124dc565b505b50905061251b9190612575565b5090565b61254191905b8082111561253d576000816000905550600101612525565b5090565b90565b61257291905b8082111561256e57600081816101000a81549061ffff02191690555060010161254a565b5090565b90565b6125a591905b808211156125a157600081816101000a81549063ffffffff02191690555060010161257b565b5090565b905600a165627a7a72305820f067181bcf9438032bb50e17db4bb9e765a0125cacc179f7a0a08a9f28fae3240029",
  "source": "pragma solidity ^0.4.19;\r\n\r\nimport \"./Mercurium.sol\";\r\n\r\n/**\r\n * The Orders contract does this and that...\r\n */\r\ncontract Orders is MercuriumToken{\r\n\r\n\tenum Status {Pendente, Transito, Entregue, Cancelado}\r\n\r\n\tstruct User{\r\n\t\tbool available;\r\n\t\tbool isDeliverer;\r\n\t\tuint created;\r\n\t\tuint32 positive_reputations;\r\n\t\tuint32 negative_reputations;\r\n\t\tuint32 order_count;\r\n\t}\r\n\t\r\n\tstruct Order {\r\n\t\taddress sender;\r\n\t\taddress deliverer;\t\t\r\n\t\tstring description;\r\n\t\tuint8 status;\r\n\t\tuint8 reputation_value;\r\n\t\tuint16[3] dimension;\r\n\t\tuint32 weight;\r\n\t\tint32[4] coords;\r\n\t\tuint price;\r\n\t\tuint created;\r\n\t\tuint updated;\r\n\t\tuint expected;\r\n\t}\r\n\r\n\tOrder[] public order_list;\r\n\tmapping (address => User) public user;\r\n\tmapping (uint => address) public orderToOwner;\r\n\r\n\t//Modificadores\r\n\tmodifier onlyCurrentDeliverer(uint order_id) {\r\n    \trequire(msg.sender == order_list[order_id].deliverer);\r\n    \t_;\r\n  \t}\r\n  \tmodifier onlyDeliverer() {\r\n  \t\trequire (user[msg.sender].isDeliverer); \r\n  \t\t_; \r\n  \t}\r\n  \tmodifier onlyOrderOwner(uint order_id) { \r\n  \t\trequire (order_list[order_id].sender == msg.sender); \r\n  \t\t_; \r\n  \t}\r\n  \t\r\n  \t//-------------------------Funes-----------------------\r\n\tfunction newOrder (uint16[3] _dimension, uint32 _weight, uint8 _reputation_value, uint256 _price, string _description, int32[4] _coords) hasEnough(_price) public {\r\n\r\n\t\tif(user[msg.sender].created == 0) user[msg.sender].created = now;\r\n\r\n\t\tbalance[msg.sender] -= _price;\r\n\t\tguarantees[msg.sender] += _price;\r\n\r\n\t\tuint order_id = order_list.push(Order(\r\n\t\t\tmsg.sender, //Sender\r\n\t\t\taddress(0x0), //Deliverer\r\n\t\t\t_description,\r\n\t\t\tuint8(Status.Pendente), //Status pendente\r\n\t\t\t_reputation_value, //Reputation offered\r\n\t\t\t_dimension, //Object\r\n\t\t\t_weight,\r\n\t\t\t_coords, \r\n\t\t\t_price,\r\n\t\t\tnow, //Created\r\n\t\t\tnow, //Updated\r\n\t\t\t0 //Deadline\r\n\t\t)) - 1;\r\n\r\n\t\torderToOwner[order_id] = msg.sender;\r\n\t\tuser[msg.sender].order_count++;\r\n\r\n\t\temit NewOrder(order_id);\r\n\t}\r\n\r\n\tfunction cancelOrder (uint _order_id) onlyOrderOwner(_order_id) public {\r\n\t\trequire (order_list[_order_id].status == uint8(Status.Pendente));\r\n\t\trequire (guarantees[msg.sender] >= order_list[_order_id].price);\r\n\t\t\r\n\t\tguarantees[msg.sender] -= order_list[_order_id].price;\r\n\t\tbalance[msg.sender] += order_list[_order_id].price;\r\n\r\n\t\torder_list[_order_id].status = uint8(Status.Cancelado);\r\n\r\n\t\temit OrderStatusChanged(uint8(Status.Cancelado), _order_id, msg.sender);\r\n\t}\r\n\r\n  \tfunction registerAsDeliverer() public {\r\n  \t\trequire (user[msg.sender].isDeliverer == false);\r\n  \t\t\r\n  \t\tuser[msg.sender].isDeliverer = true;\r\n  \t}\r\n\t\r\n\tfunction acceptOrder(uint _order_id, uint _prevision_date) onlyDeliverer public {\r\n \r\n\t\trequire (user[msg.sender].available);\r\n\t\t\r\n\t\torder_list[_order_id].deliverer = msg.sender;\r\n\t\torder_list[_order_id].updated = now;\r\n\t\torder_list[_order_id].expected = _prevision_date;\r\n\t\torder_list[_order_id].status = uint8(Status.Transito);\r\n\r\n\t\tuser[msg.sender].available = false;\r\n\t}\r\n\r\n\tfunction getOrdersDetailsById(uint _order_id) external view returns(int32[] memory o_coords, uint16[] memory o_dimensions, uint[] memory o_timer){\r\n\t\to_coords = new int32[](order_list[_order_id].coords.length);\r\n\t\to_dimensions = new uint16[](order_list[_order_id].dimension.length);\r\n\t\to_timer = new uint[](3);\r\n\r\n\t\tfor(uint i=0; i<order_list[_order_id].coords.length; i++) o_coords[i] = order_list[_order_id].coords[i];\r\n\t\tfor(i=0; i<order_list[_order_id].dimension.length; i++) o_dimensions[i] = order_list[_order_id].dimension[i];\r\n\r\n\t\to_timer[0] = order_list[_order_id].created;\r\n\t\to_timer[1] = order_list[_order_id].updated;\r\n\t\to_timer[2] = order_list[_order_id].expected;\r\n\r\n\t\treturn(o_coords, o_dimensions, o_timer);\r\n\t}\r\n\r\n\tfunction getOrdersByOwner (address _owner) external view returns(uint[] memory o_id){\r\n\t\to_id = new uint[](user[_owner].order_count);\r\n\t\tuint counter = 0;\r\n\t\tfor(uint i=0; i<order_list.length; i++){\r\n\t\t\tif(orderToOwner[i] == _owner){\r\n\t\t\t\to_id[counter] = i;\r\n\t\t\t\tcounter++;\r\n\t\t\t}\r\n\t\t}\r\n\t\treturn (o_id);\r\n\t}\r\n\t\r\n\tfunction setOrderComplete (uint _order_id) onlyOrderOwner(_order_id) public {\r\n\t\trequire (order_list[_order_id].status < uint8(Status.Entregue));\r\n\r\n\t\torder_list[_order_id].status = uint8(Status.Entregue);\r\n\t\torder_list[_order_id].updated = now;\r\n\r\n\t\taddress deliverer_addr = order_list[_order_id].deliverer;\r\n\t\t//Estabelece um ponto de reputao\r\n\t\tuser[deliverer_addr].positive_reputations += order_list[_order_id].reputation_value;\r\n\r\n\t\t//Executa o pagamento\r\n\t\tguarantees[msg.sender] -= order_list[_order_id].price;\r\n\t\tbalance[deliverer_addr] += order_list[_order_id].price;\r\n\t\tuser[deliverer_addr].available = true;\t\r\n\r\n\t\temit OrderStatusChanged(uint8(Status.Entregue), _order_id, deliverer_addr);\r\n\t}\r\n\t\r\n\t//Events\r\n\tevent OrderStatusChanged(uint8 status, uint order_id, address indexed node);\r\n\tevent NewOrder(uint id);\r\n}",
  "sourcePath": "C:\\Users\\LuisM\\Documents\\Projetos\\Crypto\\mercurium\\contracts\\Orders.sol",
  "compiler": {
    "name": "solc",
    "version": "0.4.23+commit.124ca40d.Emscripten.clang"
  },
  "schemaVersion": "2.0.0",
  "updatedAt": "2018-05-07T00:14:24.447Z"
}